:020000040800F2
:1000000000000120591D0008B91A0008BB1A000899
:10001000BD1A0008BF1A0008C11A0008000000003D
:10002000000000000000000000000000C31A0008EB
:10003000C51A000800000000C71A0008C91A000805
:10004000A91D0008A91D0008A91D0008A91D000878
:10005000A91D0008A91D0008A91D0008A91D000868
:10006000A91D0008A91D0008A91D0008A91D000858
:10007000A91D0008A91D0008A91D0008A91D000848
:10008000A91D0008A91D0008A91D00080000000006
:10009000000000000000000000000000A91D000892
:1000A000A91D0008A91D0008A91D0008A91D000818
:1000B000A91D0008D11A0008A91D0008691C000824
:1000C000791C0008A91D0008A91D0008A91D000829
:1000D000A91D0008A91D0008A91D000800000000B6
:1000E000A91D0008A91D0008A91D000800000000A6
:1000F000000000000000000000000000A91D000832
:1001000000000000A91D0008A91D0008A91D000885
:1001100000000000000000000000000000000000DF
:10012000A91D0008A91D0008A91D0008A91D000897
:10013000A91D0008000000000000000000000000F1
:10014000000000000000000000000000891C000802
:10015000A91D0008A91D0008A91D0008A91D000867
:10016000A91D0008A91D00080000000000000000F3
:10017000000000000000000000000000000000007F
:1001800000000000A91D00080000000000000000A1
:04019000A91D00089D
:1001C00081F0004102E000BF83F0004330B54FEA08
:1001D00041044FEA430594EA050F08BF90EA020F75
:1001E0001FBF54EA000C55EA020C7FEA645C7FEA08
:1001F000655C00F0E2804FEA5454D4EB5555B8BF2B
:100200006D420CDD2C4480EA020281EA030382EA9B
:10021000000083EA010180EA020281EA0303362D2D
:1002200088BF30BD11F0004F4FEA01314FF4801C00
:100230004CEA113102D0404261EB410113F0004F12
:100240004FEA03334CEA133302D0524263EB4303C9
:1002500094EA050F00F0A780A4F10104D5F1200E67
:100260000DDB02FA0EFC22FA05F2801841F10001C2
:1002700003FA0EF2801843FA05F359410EE0A5F196
:1002800020050EF1200E012A03FA0EFC28BF4CF0C7
:10029000020C43FA05F3C01851EBE37101F000457D
:1002A00007D54FF0000EDCF1000C7EEB00006EEB8A
:1002B0000101B1F5801F1BD3B1F5001F0CD3490814
:1002C0005FEA30004FEA3C0C04F101044FEA44526B
:1002D00012F5800F80F09A80BCF1004F08BF5FEAF2
:1002E000500C50F1000041EB045141EA050130BDD2
:1002F0005FEA4C0C404141EB0101013C28BFB1F5E4
:10030000801FE9D291F0000F04BF01460020B1FA2E
:1003100081F308BF2033A3F10B03B3F120020CDA01
:100320000C3208DD02F1140CC2F10C0201FA0CF0DF
:1003300021FA02F10CE002F11402D8BFC2F1200C44
:1003400001FA02F120FA0CFCDCBF41EA0C019040FA
:10035000E41AA2BF01EB0451294330BD6FEA040443
:100360001F3C1CDA0C340EDC04F11404C4F120022E
:1003700020FA04F001FA02F340EA030021FA04F340
:1003800045EA030130BDC4F10C04C4F1200220FA97
:1003900002F001FA04F340EA0300294630BD21FAD5
:1003A00004F0294630BD94F0000F83F4801306BF9B
:1003B00081F480110134013D4EE77FEA645C18BF8F
:1003C0007FEA655C29D094EA050F08BF90EA020F26
:1003D00005D054EA000C04BF1946104630BD91EA1E
:1003E000030F1EBF0021002030BD5FEA545C05D121
:1003F0004000494128BF41F0004130BD14F5800460
:100400003CBF01F5801130BD01F0004545F0FE41D3
:1004100041F470014FF0000030BD7FEA645C1ABF08
:10042000194610467FEA655C1CBF0B46024650EA3F
:10043000013406BF52EA033591EA030F41F400216B
:1004400030BD00BF90F0000F04BF0021704730B5F1
:100450004FF4806404F132044FF000054FF00001C6
:1004600050E700BF90F0000F04BF0021704730B587
:100470004FF4806404F1320410F0004548BF40425C
:100480004FF000013EE700BF42004FEAE2014FEAB1
:1004900031014FEA02701FBF12F07F4393F07F4F8C
:1004A00081F06051704732F07F4208BF704793F08F
:1004B0007F4F04BF41F40021704730B54FF46074A2
:1004C00001F0004521F000411CE700BF50EA0102A5
:1004D00008BF704730B54FF000050AE050EA01024E
:1004E00008BF704730B511F0004502D5404261EBBE
:1004F00041014FF4806404F132045FEA915C3FF4FF
:10050000D8AE4FF003025FEADC0C18BF03325FEA9B
:10051000DC0C18BF033202EBDC02C2F1200300FA4C
:1005200003FC20FA02F001FA03FE40EA0E0021FA71
:1005300002F11444BDE600BF70B54FF0FF0C4CF45F
:10054000E06C1CEA11541DBF1CEA135594EA0C0F11
:1005500095EA0C0F00F0DEF82C4481EA030621EA4C
:100560004C5123EA4C5350EA013518BF52EA033587
:1005700041F4801143F4801338D0A0FB02CE4FF039
:100580000005E1FB02E506F00042E0FB03E54FF069
:100590000006E1FB03569CF0000F18BF4EF0010E61
:1005A000A4F1FF04B6F5007F64F5407404D25FEA5D
:1005B0004E0E6D4146EB060642EAC62141EA555110
:1005C0004FEAC52040EA5E504FEACE2EB4F1FD0C52
:1005D00088BFBCF5E06F1ED8BEF1004F08BF5FEAD0
:1005E000500E50F1000041EB045170BD06F0004682
:1005F00046EA010140EA020081EA0301B4EB5C042F
:10060000C2BFD4EB0C0541EA045170BD41F4801126
:100610004FF0000E013C00F3AB8014F1360FDEBF4B
:10062000002001F0004170BDC4F10004203C35DA27
:100630000C341BDC04F11404C4F1200500FA05F3AA
:1006400020FA04F001FA05F240EA020001F000424B
:1006500021F0004110EBD37021FA04F642EB0601C1
:100660005EEA430E08BF20EAD37070BDC4F10C04EB
:10067000C4F1200500FA04F320FA05F001FA04F2AF
:1006800040EA020001F0004110EBD37041F100019B
:100690005EEA430E08BF20EAD37070BDC4F12005A6
:1006A00000FA05F24EEA020E20FA04F301FA05F20E
:1006B00043EA020321FA04F001F0004121FA04F2B6
:1006C00020EA020000EBD3705EEA430E08BF20EA86
:1006D000D37070BD94F0000F0FD101F000464000C0
:1006E00041EB010111F4801F08BF013CF7D041EA42
:1006F000060195F0000F18BF704703F00046520046
:1007000043EB030313F4801F08BF013DF7D043EA16
:100710000603704794EA0C0F0CEA135518BF95EACC
:100720000C0F0CD050EA410618BF52EA4306D1D153
:1007300081EA030101F000414FF0000070BD50EA72
:10074000410606BF1046194652EA430619D094EAFC
:100750000C0F02D150EA013613D195EA0C0F05D1E6
:1007600052EA03361CBF104619460AD181EA03013A
:1007700001F0004141F0FE4141F470014FF00000F2
:1007800070BD41F0FE4141F4780170BD70B54FF08D
:10079000FF0C4CF4E06C1CEA11541DBF1CEA13550D
:1007A00094EA0C0F95EA0C0F00F0A7F8A4EB0504EF
:1007B00081EA030E52EA03354FEA013100F08880E6
:1007C0004FEA03334FF0805545EA131343EA1263AF
:1007D0004FEA022245EA111545EA10654FEA002664
:1007E0000EF000419D4208BF964244F1FD0404F51D
:1007F000407402D25B084FEA3202B61A65EB030579
:100800005B084FEA32024FF480104FF4002CB6EB35
:10081000020E75EB030E22BFB61A754640EA0C00B5
:100820005B084FEA3202B6EB020E75EB030E22BFF5
:10083000B61A754640EA5C005B084FEA3202B6EB36
:10084000020E75EB030E22BFB61A754640EA9C00F5
:100850005B084FEA3202B6EB020E75EB030E22BFC5
:10086000B61A754640EADC0055EA060E18D04FEA83
:10087000051545EA16754FEA06164FEAC30343EA23
:1008800052734FEAC2025FEA1C1CC0D111F4801FF0
:100890000BD141EA00014FF000004FF0004CB6E7E9
:1008A00011F4801F04BF01430020B4F1FD0C88BF88
:1008B000BCF5E06F3FF6AFAEB5EB030C04BFB6EB93
:1008C000020C5FEA500C50F1000041EB045170BD86
:1008D0000EF0004E4EEA113114EB5C04C2BFD4EBB3
:1008E0000C0541EA045170BD41F480114FF0000E37
:1008F000013C90E645EA060E8DE60CEA135594EAB3
:100900000C0F08BF95EA0C0F3FF43BAF94EA0C0FB5
:100910000AD150EA01347FF434AF95EA0C0F7FF42A
:1009200025AF104619462CE795EA0C0F06D152EA7E
:1009300003353FF4FDAE1046194622E750EA410662
:1009400018BF52EA43067FF4C5AE50EA41047FF473
:100950000DAF52EA43057FF4EBAE12E74FEA4102D6
:10096000B2F1E04324BFB3F5001CDCF1FE5C0DD90D
:1009700001F0004C4FEAC0024CEA5070B2F1004F57
:1009800040EB830008BF20F00100704711F0804F5A
:1009900021D113F13872BCBF01F00040704741F41F
:1009A00080114FEA5252C2F11802C2F1200C10FA23
:1009B0000CF320FA02F018BF40F001004FEAC12307
:1009C0004FEAD32303FA0CFC40EA0C0023FA02F3AB
:1009D0004FEA4303CCE77FEA625307D150EA013381
:1009E0001EBF4FF0FE4040F44000704701F0004051
:1009F00040F0FE4040F40000704700BF80F000402F
:100A000002E000BF81F0004142001FBF5FEA4103E6
:100A100092EA030F7FEA226C7FEA236C6AD04FEAE6
:100A20001262D2EB1363C1BFD2184140484041402B
:100A3000B8BF5B42192B88BF704710F0004F40F4DD
:100A4000000020F07F4018BF404211F0004F41F4F9
:100A5000000121F07F4118BF494292EA030F3FD0C5
:100A6000A2F1010241FA03FC10EB0C00C3F12003D8
:100A700001FA03F100F0004302D5494260EB400067
:100A8000B0F5000F13D3B0F1807F06D340084FEAD2
:100A9000310102F10102FE2A51D2B1F1004F40EBC7
:100AA000C25008BF20F0010040EA0300704749002F
:100AB00040EB0000013A28BFB0F5000FEDD2B0FACC
:100AC00080FCACF1080CB2EB0C0200FA0CF0AABFEF
:100AD00000EBC25052421843BCBFD040184370478D
:100AE00092F0000F81F4000106BF80F40000013293
:100AF000013BB5E74FEA41037FEA226C18BF7FEA6A
:100B0000236C21D092EA030F04D092F0000F08BFAB
:100B10000846704790EA010F1CBF0020704712F092
:100B20007F4F04D1400028BF40F00040704712F1D1
:100B300000723CBF00F50000704700F0004343F036
:100B4000FE4040F4000070477FEA226216BF08466C
:100B50007FEA23630146420206BF5FEA412390EA2F
:100B6000010F40F4800070474FF0000304E000BF25
:100B700010F0004348BF40425FEA000C08BF7047D6
:100B800043F0964301464FF000001CE050EA01029A
:100B900008BF70474FF000030AE000BF50EA0102AF
:100BA00008BF704711F0004302D5404261EB41019C
:100BB0005FEA010C02BF84460146002043F0B643C1
:100BC00008BFA3F18053A3F50003BCFA8CF2083AE6
:100BD000A3EBC25310DB01FA02FC634400FA02FCEF
:100BE000C2F12002BCF1004F20FA02F243EB0200F6
:100BF00008BF20F00100704702F1200201FA02FC58
:100C0000C2F1200250EA4C0021FA02F243EB02004A
:100C100008BF20EADC7070474FF0FF0C1CEAD0528E
:100C20001EBF1CEAD15392EA0C0F93EA0C0F6FD04F
:100C30001A4480EA010C400218BF5FEA41211ED02D
:100C40004FF0006343EA501043EA5111A0FB013119
:100C50000CF00040B1F5000F3EBF490041EAD371EE
:100C60005B0040EA010062F17F02FD2A1DD8B3F16A
:100C7000004F40EBC25008BF20F00100704790F0D9
:100C8000000F0CF0004C08BF49024CEA502040EA2B
:100C900051207F3AC2BFD2F1FF0340EAC2507047F1
:100CA00040F400004FF00003013A5DDC12F1190F2F
:100CB000DCBF00F000407047C2F10002410021FAA1
:100CC00002F1C2F1200200FA02FC5FEA310040F1B9
:100CD000000053EA4C0308BF20EADC70704792F032
:100CE000000F00F0004C02BF400010F4000F013A6A
:100CF000F9D040EA0C0093F0000F01F0004C02BF65
:100D0000490011F4000F013BF9D041EA0C018FE7D3
:100D10000CEAD15392EA0C0F18BF93EA0C0F0AD0D9
:100D200030F0004C18BF31F0004CD8D180EA0100FF
:100D300000F00040704790F0000F17BF90F0004F98
:100D4000084691F0000F91F0004F14D092EA0C0F7A
:100D500001D142020FD193EA0C0F03D14B0218BF0D
:100D6000084608D180EA010000F0004040F0FE4053
:100D700040F40000704740F0FE4040F440007047EF
:100D80004FF0FF0C1CEAD0521EBF1CEAD15392EA6E
:100D90000C0F93EA0C0F69D0A2EB030280EA010C5E
:100DA00049024FEA402037D04FF0805343EA1111F7
:100DB00043EA10130CF000408B4238BF5B0042F155
:100DC0007D024FF4000C8B4224BF5B1A40EA0C00FA
:100DD000B3EB510F24BFA3EB510340EA5C00B3EB2C
:100DE000910F24BFA3EB910340EA9C00B3EBD10F1A
:100DF00024BFA3EBD10340EADC001B0118BF5FEA6C
:100E00001C1CE0D1FD2A3FF650AF8B4240EBC25094
:100E100008BF20F0010070470CF0004C4CEA502055
:100E20007F32C2BFD2F1FF0340EAC250704740F4A4
:100E300000004FF00003013A37E792F0000F00F096
:100E4000004C02BF400010F4000F013AF9D040EA14
:100E50000C0093F0000F01F0004C02BF490011F4A8
:100E6000000F013BF9D041EA0C0195E70CEAD153A0
:100E700092EA0C0F08D142027FF47DAF93EA0C0F87
:100E80007FF470AF084676E793EA0C0F04D14B026B
:100E90003FF44CAF08466EE730F0004C18BF31F01D
:100EA000004CCAD130F000427FF45CAF31F0004317
:100EB0007FF43CAF5FE700BF53B94AB9002908BFD0
:100EC00000281CBF4FF0FF314FF0FF3000F00CB88E
:100ED000ADF1080C6DE904CE06F08CFBDDF804E002
:100EE000DDE9022304B07047704700BF0000000036
:100EF00001F0FF01102A2BDB10F0070F08D010F8CB
:100F0000013B013A8B422DD010F0070F42B3F6D1CE
:100F1000F0B441EA012141EA014122F007047FF0E7
:100F200000070023F0E80256083C85EA010586EA3E
:100F3000010685FA47F5A3FA87F586FA47F6A5FA7A
:100F400087F68EB9EED1F0BC01F0FF0102F0070286
:100F500032B110F8013B013A83EA010313B1F8D131
:100F60000020704701387047002D06BF3546033812
:100F7000073815F0010F07D1013015F4807F02BF4B
:100F8000013015F4C03F0130F0BC0138704700BF9C
:100F90000000000000000000000000000000000051
:100FA0000000000000000000000000000000000041
:100FB0000000000000000000000000000000000031
:100FC00030B490F800F020F007016FF0000C10F042
:100FD000070491F820F040F048804FF000046FF0D3
:100FE0000700D1E9002391F840F000F1080082FAEF
:100FF0004CF2A4FA8CF283FA4CF3A2FA8CF34BBBBA
:10100000D1E9022382FA4CF200F10800A4FA8CF232
:1010100083FA4CF3A2FA8CF3E3B9D1E9042382FA00
:101020004CF200F10800A4FA8CF283FA4CF3A2FA15
:101030008CF37BB9D1E9062301F1200182FA4CF24D
:1010400000F10800A4FA8CF283FA4CF3A2FA8CF3B4
:10105000002BC6D0002A04BF04301A4612BAB2FAD6
:1010600082F200EBD20030BC7047D1E9002304F0DB
:101070000305C4F100004FEAC50514F0040F91F810
:1010800040F00CFA05F562EA05021CBF63EA0503AD
:1010900062464FF00004AAE7844641EA000313F0D9
:1010A00003036DD1403A41D351F8043B40F8043B6F
:1010B00051F8043B40F8043B51F8043B40F8043B32
:1010C00051F8043B40F8043B51F8043B40F8043B22
:1010D00051F8043B40F8043B51F8043B40F8043B12
:1010E00051F8043B40F8043B51F8043B40F8043B02
:1010F00051F8043B40F8043B51F8043B40F8043BF2
:1011000051F8043B40F8043B51F8043B40F8043BE1
:1011100051F8043B40F8043B51F8043B40F8043BD1
:1011200051F8043B40F8043B403ABDD2303211D371
:1011300051F8043B40F8043B51F8043B40F8043BB1
:1011400051F8043B40F8043B51F8043B40F8043BA1
:10115000103AEDD20C3205D351F8043B40F8043B71
:10116000043AF9D2043208D0D2071CBF11F8013B6F
:1011700000F8013B01D30B8803806046704700BF35
:10118000082A13D38B078DD010F003038AD0C3F144
:101190000403D21ADB071CBF11F8013B00F8013B26
:1011A00080D331F8023B20F8023B7BE7043AD9D3E5
:1011B000013A11F8013B00F8013BF9D20B780370BA
:1011C0004B7843708B788370604670474FF0FF3CDC
:1011D00006E000BF4FF0010C02E000BF4FF0010C31
:1011E0004DF804CD4FEA410C7FEA6C5C4FEA430CAA
:1011F00018BF7FEA6C5C1BD001B050EA410C0CBFF9
:1012000052EA430C91EA030F02BF90EA020F00205A
:10121000704710F1000F91EA030F58BF994208BFC1
:1012200090422CBFD8176FEAE37040F0010070477E
:101230004FEA410C7FEA6C5C02D150EA013C07D1D5
:101240004FEA430C7FEA6C5CD6D152EA033CD3D020
:101250005DF8040B704700BF8446104662468C461A
:101260001946634600E000BF01B5FFF7B7FF00284D
:1012700048BF10F1000F01BD4DF808EDFFF7F4FF76
:101280000CBF012000205DF808FB00BF4DF808ED01
:10129000FFF7EAFF34BF012000205DF808FB00BF24
:1012A0004DF808EDFFF7E0FF94BF012000205DF846
:1012B00008FB00BF4DF808EDFFF7CEFF94BF0120FB
:1012C00000205DF808FB00BF4DF808EDFFF7C4FFF4
:1012D00034BF012000205DF808FB00BF4FEA410C3D
:1012E0007FEA6C5C02D150EA013C0AD14FEA430C20
:1012F0007FEA6C5C02D152EA033C02D14FF000005D
:1013000070474FF0010070474FEA410212F500129A
:1013100015D211D56FF47873B3EB625212D94FEA3C
:10132000C12343F0004343EA505311F0004F23FA26
:1013300002F018BF404270474FF00000704750EA7B
:10134000013005D111F0004008BF6FF00040704738
:101350004FF00000704700BF0348044B834202D0A7
:10136000034B03B118477047CC070020CC0700207F
:10137000000000000548064B1B1AD90F01EBA30122
:10138000491002D0034B03B118477047CC07002027
:10139000CC0700200000000010B5064C237843B9AC
:1013A000FFF7DAFF044B13B10448AFF300800123C9
:1013B000237010BDCC0700200000000090D800086A
:1013C00008B5054B1BB105490548AFF30080BDE8E2
:1013D0000840FFF7CFBF00BF00000000D00700208B
:1013E00090D800082DE9F04184B006460E4D4FF02C
:1013F000000885F800806427029701240194009575
:1014000023466B22D02101F05DFC85F80080029715
:101410000194009523466C22D021304601F052FC05
:1014200004B0BDE8F08100BFE80700202DE9F041DD
:1014300084B00646234D4FF0000885F800806427ED
:10144000029701240194009523463722D02101F010
:1014500039FC2C7002970194009523463822D02144
:10146000304601F02FFC85F800800297019400952A
:1014700023461C22D021304601F024FC85F8008050
:1014800002970194009523461D22D021304601F099
:1014900019FC85F8008002970194009523461B22D1
:1014A000D021304601F00EFC85F8008002970194AF
:1014B000009523461A22D021304601F003FC04B0E7
:1014C000BDE8F081E80700202DE9F04184B0054631
:1014D0000F46012302930193854C00943A22D021B8
:1014E00001F0A2FC2378012B02D004B0BDE8F0810A
:1014F0000124029401947E4E009623463B22D02183
:10150000284601F091FC96F800804FEA08280294E2
:101510000194009623463C22D021284601F084FC09
:10152000307848EA0000FFF71FFBFEF7ADFF00220E
:10153000704BFFF701F86CA3D3E90023FFF726F9FE
:10154000FFF70CFA386002940194009623463D227E
:10155000D021284601F068FC96F800804FEA082860
:1015600002940194009623463E22D021284601F0A1
:101570005BFC307848EA0000FFF7F6FAFEF784FFDC
:1015800000225C4BFEF7D8FF57A3D3E90023FFF7F7
:10159000FDF8FFF7E3F97860029401940096234682
:1015A0003F22D021284601F03FFC96F800804FEA08
:1015B000082802940194009623464022D021284610
:1015C00001F032FC307848EA0000FFF7CDFAFEF770
:1015D0005BFF0022474BFEF7AFFF43A3D3E9002395
:1015E000FFF7D4F8FFF7BAF9B860029401940096B7
:1015F00023464322D021284601F016FC96F80080AD
:101600004FEA082802940194009623464422D021F0
:10161000284601F009FC307848EA0000FFF7A4FAF8
:10162000FEF732FF0022344BFEF786FF2EA3D3E9EC
:101630000023FFF7ABF8FFF791F9F86002940194EB
:10164000009623464522D021284601F0EDFB96F86E
:1016500000804FEA0828029401940096234646220F
:10166000D021284601F0E0FB307848EA0000FFF77F
:101670007BFAFEF709FF00221F4BFEF75DFF1AA35E
:10168000D3E90023FFF782F8FFF768F93861029485
:101690000194009623464722D021284601F0C4FB3E
:1016A00096F800804FEA0828029401940096234699
:1016B0004822D021284601F0B7FB307848EA0000E4
:1016C000FFF752FAFEF7E0FE00220B4BFEF734FF65
:1016D00005A3D3E90023FFF759F8FFF73FF9786135
:1016E00003E700BFAFF3008000000000E0FFEF4021
:1016F000E907002000409F4000406F4030B58BB0AC
:1017000000240594069407940894099401941E4BB0
:101710001A6B42F004021A631A6B02F0040201927F
:10172000019A02941A6B42F080021A631A6B02F05B
:1017300080020292029A03941A6B42F001021A6329
:101740001A6B02F001020392039A04941A6B42F09E
:1017500002021A631B6B03F002030493049B0B4DFC
:1017600022464FF40051284600F058FD4FF4005334
:101770000593012306930794089405A9284600F0D1
:1017800065FC0BB030BD00BF0038024000080240CD
:1017900072B6FEE708B50A480A4B03600A4B43607D
:1017A00000238360C3604FF4804202614361836120
:1017B000C361036201F0A8F900B908BDFFF7E8FFB3
:1017C0003408002000540040801A060000B587B09D
:1017D000002302930393049305930093019313480A
:1017E000134A02604360836043F67F62C260036114
:1017F000836103F093FD90B94FF48053029302A9E3
:101800000A4803F0C3FD60B90023009301936946C1
:10181000064803F03BFE30B907B05DF804FBFFF764
:10182000B7FFFFF7B5FFFFF7B3FF00BFEC070020DE
:101830000004004000B595B03022002108A806F051
:1018400091F900230393049305930693079301935F
:10185000204A116C41F080511164126C02F08052E8
:101860000192019A02931C4A136823F4404343F403
:1018700000431360136803F440430293029B032365
:1018800008934FF48033099301230B9310230C9397
:1018900002230E934FF480020F920F221092902297
:1018A000119212930523139308A803F0ADF868B9B9
:1018B0000F2303930021049105910691079103A83A
:1018C00003F0F2FA20B915B05DF804FBFFF760FFF2
:1018D000FFF75EFF003802400070004080B592B014
:1018E00000F0E2FAFFF7A6FFFFF708FFFFF752FF4D
:1018F00005F02CFCFFF76AFF4FF40051224800F07E
:1019000093FC224E224D234C0127009733462A4652
:101910003B21204600F092FA009706F1EC032A469C
:101920003B2104F10C0000F089FA009706F5EC73F6
:101930002A463B2104F1180000F080FA164C20469C
:10194000FFF750FD2046FFF771FD144803F0A0FBA0
:10195000134B1E68134B1868FEF796FD04460D46A0
:101960003046FEF791FDCDE9000122462B460E4997
:1019700002A806F08DF8402102A805F039FC642089
:1019800000F0BEFAE4E700BF00080240AC08002007
:10199000A8DA00088808002034080020EC0700209E
:1019A000B80B0020A00B0020A8D8000882B00021AE
:1019B00000910B4B5A6C42F480425A645A6C02F408
:1019C00080420092009A01911A6C42F080521A648F
:1019D0001B6C03F080530193019B02B0704700BF62
:1019E0000038024030B589B0002303930493059377
:1019F0000693079302681D4B9A4201D009B030BD8F
:101A0000002401941A4D2B6B43F002032B632B6BC4
:101A100003F002030193019BC02303931223049359
:101A200001230593032306930423079303A9114875
:101A300000F00CFB02942B6C43F400132B642B6C12
:101A400003F400130293029B224621461F2000F05C
:101A5000BFFA1F2000F0CCFA22462146202000F0D9
:101A6000B7FA202000F0C4FAC8E700BF00540040D5
:101A7000003802400004024002680E4B9A4200D037
:101A8000704700B583B00021019103F50D331A6C46
:101A900042F002021A641B6C03F002030193019BE3
:101AA0000A461D2000F094FA1D2000F0A1FA03B0B0
:101AB0005DF804FB00040040FEE7FEE7FEE7FEE7FA
:101AC000FEE770477047704708B500F007FA08BD99
:101AD0002DE9F8435C4D29465C48FFF7F5FC2B687F
:101AE0005B4C23606B68C4F8EC30AB68C4F8D83149
:101AF000584D594E01232A462146304600F055F9EB
:101B000001232A1D04F1EC0106F10C0000F04DF94F
:101B1000012305F1080204F5EC7106F1180000F04C
:101B200044F94E4C2068FEF7AFFC06460F46286885
:101B3000FEF7AAFC42A3D3E90023FEF7FDFC024610
:101B40000B4630463946FEF741FBFEF707FF0746D6
:101B500020606068FEF798FC804689466868FEF75A
:101B600093FC37A3D3E90023FEF7E6FC02460B46BD
:101B700040464946FEF72AFBFEF7F0FE0646606047
:101B8000A068FEF781FC80468946A868FEF77CFCC9
:101B90002BA3D3E90023FEF7CFFC02460B464046B9
:101BA0004946FEF713FBFEF7D9FE0546A0602C4C14
:101BB0002068FEF769FC804689463846FEF764FCDB
:101BC0001FA3D3E90023FEF7B7FC02460B464046AD
:101BD0004946FEF7FBFAFEF7C1FE20606068FEF79B
:101BE00053FC804689463046FEF74EFC14A3D3E9E9
:101BF0000023FEF7A1FC02460B4640464946FEF78D
:101C0000E5FAFEF7ABFE6060A068FEF73DFC064615
:101C10000F462846FEF738FC09A3D3E90023FEF758
:101C20008BFC02460B4630463946FEF7CFFAFEF7EC
:101C300095FEA0600B4803F06CFABDE8F88300BF86
:101C4000FCA9F1D24D62503FB80B002034080020AF
:101C5000AC080020A00B002088080020700B00209A
:101C6000880B0020EC07002008B5024801F05EFF59
:101C700008BD00BF3408002008B5024802F026F86D
:101C800008BD00BF3408002008B5024802F0B1FBCF
:101C900008BD00BFD81A00200120704708B506F023
:101CA00007F8162303604FF0FF3008BD08B54FF06A
:101CB000FF31FFF7F3FFFEE770B50C46164600252F
:101CC00006E0AFF30080214601F8010B01350C4618
:101CD000B542F6DB304670BD70B50C4616460025A1
:101CE00004E014F8010BAFF300800135B542F8DBD6
:101CF000304670BD4FF0FF3070474FF400534B60DB
:101D000000207047012070470020704710B503463F
:101D10000C4A0D490D48006840B10C480068034466
:101D2000521A934206D8094A136010BD0748084C5E
:101D30000460F2E705F0BCFF0C2303604FF0FF30B6
:101D4000F3E700BF0000012000040000D00B0020DA
:101D5000D022002070470000DFF834D0FFF7FAFFF0
:101D60000C480D490D4A002302E0D458C4500433F6
:101D7000C4188C42F9D30A4A0A4C002301E01360CC
:101D80000432A242FBD305F099FFFFF7A7FD70478D
:101D90000000012000000020CC07002000DE000829
:101DA000CC070020D0220020FEE72DE9F04F85B0BF
:101DB000044690469946D0F804A0836802930088B0
:101DC00000F1804B0BF1FF3B0AEB8B0B019003946E
:101DD0005446DA460B4613E056F8041B55F8040B3C
:101DE000FEF71AFF01465846FEF70EFE8346013FF6
:101DF000002FF1D1009B48F804BB043409F1FF39EE
:101E0000B9F1000F0AD053F8041B4AF8041B019FD4
:101E1000029E25464FF0000B0093E9E7A246019889
:101E2000039C6368421E04E05AF8041B43F8041B39
:101E3000013A002AF8D105B0BDE8F08F38B5044664
:101E40001D4601808260049B19444A1E92000021B5
:101E5000284605F087FE656038BD000010B50446D1
:101E60000E4B1A784FF47A73B3FBF2F30C4A1068F6
:101E7000B0FBF3F000F0C0F868B90F2C01D90120D5
:101E80000AE0002221464FF0FF3000F0A1F8054B98
:101E90001C60002000E0012010BD00BF04000020F5
:101EA000000000200800002008B50B4B1A6842F41F
:101EB00000721A601A6842F480621A601A6842F46A
:101EC00080721A60032000F071F80F20FFF7C6FF40
:101ED000FFF76CFD002008BD003C0240034A11687A
:101EE000034B1B780B441360704700BFD40B0020DA
:101EF00004000020014B1868704700BFD40B00207D
:101F000038B50446FFF7F6FF0546B4F1FF3F02D0AF
:101F1000044B1B781C44FFF7EDFF401BA042FAD393
:101F200038BD00BF04000020002807DB00F01F02BE
:101F3000400901239340024A42F82030704700BF15
:101F400000E100E0002808DB0901C9B200F16040AF
:101F500000F5614080F80013704700F00F000901A0
:101F6000C9B2014B1954704714ED00E000B500F000
:101F70000700C0F1070CBCF1040F28BF4FF0040CA0
:101F8000031D062B0FD9C31E4FF0FF3E0EFA0CF0B7
:101F900021EA000199400EFA03FE22EA0E0241EA0C
:101FA00002005DF804FB0023EEE70000074AD36857
:101FB00023F4E0631B041B0C000200F4E060034305
:101FC00043F0BF6343F40033D360704700ED00E09B
:101FD00010B50446054BD868C0F30220FFF7C6FFD2
:101FE00001462046FFF7AEFF10BD00BF00ED00E048
:101FF00008B5FFF799FF08BD0138B0F1807F0BD21B
:102000004FF0E0235861054AF02182F823100020A8
:10201000986107221A6170470120704700ED00E0C7
:1020200090F83530DBB2022B03D0802343650120CA
:102030007047052380F835300268136823F00103E8
:1020400013600020704790F83500704700230F2B75
:1020500000F2DA8030B583B068E085684FEA430E5D
:10206000032404FA0EF425EA0405CC6804FA0EF4FD
:102070002C438460446824EA02044A68C2F30012D4
:102080009A40224342605FE0DC08083450F8242084
:1020900003F00705AD004FF00F0E0EFA05FE22EA21
:1020A0000E0E0A69AA4042EA0E0240F824205FE0C0
:1020B000042200E0002202FA0EF22A430234534DB9
:1020C00045F82420524A94686FEA0C0224EA0C0571
:1020D000D1F804E01EF4801F01D04CEA04054C4CFA
:1020E000A560E46802EA0405D1F804E01EF4001FCC
:1020F00001D04CEA0405464CE560646802EA040538
:10210000D1F804E01EF4003F01D04CEA0405404C35
:102110006560246822404D6815F4803F01D04CEA88
:1021200004023B4C226001330F2B6BD801229A40F2
:102130000C6804EA020C32EA0404F4D14C6804F09E
:102140000304013C012C88D94A6802F00302032AE7
:1021500009D0C4685D000322AA4024EA02048A6808
:10216000AA402243C2604A6802F00302022A8BD0CE
:1021700004684FEA430E032202FA0EF224EA020434
:102180004A6802F0030202FA0EF2224302604A6831
:1021900012F4403FC7D0002201921E4A546C44F40E
:1021A00080445464526C02F480420192019A9C086B
:1021B000A51C164A52F8255003F0030E4FEA8E0E66
:1021C0000F2202FA0EF225EA0205134A90423FF46A
:1021D00071AF02F5806290420ED002F580629042AB
:1021E0000CD002F5806290420AD002F580629042E3
:1021F0003FF45EAF07225EE701225CE702225AE766
:10220000032258E703B030BD704700BF00380140DB
:10221000003C014000380240000002400AB18161E8
:102220007047090481617047436901EA030221EAAA
:10223000030141EA02418161704703685A6912F063
:10224000800F01D000221A61704790F83E30DBB257
:10225000402B10D00369B3F5804F1BD0036D002BCA
:1022600039D1436CC3F3C813026803F0060343F08B
:10227000F00313617047036D2BB9436C026803F0E0
:10228000FE0313617047436C026843F00103DBB245
:102290001361704790F83D30DBB2212B0FD0436CB7
:1022A000026843F00103DBB21361436B6BB1DB6B7C
:1022B0005BB10268536843F4006353607047436C3A
:1022C000026803F0FE031361EFE7836B33B1DB6B4E
:1022D000002BEED102E0036D012B00D07047436C60
:1022E000C3F3C813026803F0060343F0F10313615C
:1022F000F4E7436C0268DBB21361436B3BB1DB6B09
:102300002BB10268536843F4006353607047836BDA
:10231000002BFBD0DB6B002BF3D1F7E710B48BB0B5
:1023200090F83E30DAB2C16A046B90F83D30DBB20F
:10233000222B0AD00023099303685A6909929B69EA
:102340000993099B0BB010BC7047036D0BB9402A71
:1023500017D0036D1BB90369B3F5404F19D0438DF6
:102360009BB2002B25D1029303685A6902929A69A5
:102370000292029A1A6842F400721A6000230365FE
:10238000E0E7009303685A6900929B690093009B01
:10239000D8E70023019303685A6901929A69019270
:1023A000019A1A6842F480721A60036D0133036562
:1023B000C8E7438D9BB2012B26D0438D9BB2022BE5
:1023C0007CD00268136843F48063136003685A6822
:1023D00012F4006F0FD0202900F2AE800829C0F05F
:1023E000A7800839574ACA4012F0010F03D05A6833
:1023F00042F480525A600023089303685A69089295
:102400009B690893089BB9E711F5803F11D0082913
:1024100034D0202932D0122C2ED0042940D00229C9
:102420003ED010293CD00268136823F48063136007
:102430003BE00268136823F48063136003685A6802
:1024400012F4006F0CD01A6822F480621A60002324
:10245000039303685A6903929B690393039B8DE777
:10246000002204925A6904929A690492049A1A68A2
:1024700042F400721A6081E70129D0D00268136823
:1024800023F4806313600023069303685A6906925D
:102490009A690692069A1A6842F400721A606DE709
:1024A0000268136843F48063136000230593036894
:1024B0005A6905929B690593059B5FE710290AD825
:1024C000214BCB4013F0010F05D00268136843F491
:1024D0008063136009E00268136823F4806313606B
:1024E0000268136843F40063136003685A6812F4C7
:1024F000006F0DD0202917D8082912D30839114AA6
:10250000CA4012F0010F03D05A6842F480525A6058
:102510000023079303685A6907929B690793079BF7
:102520002CE70129F4D1EFE711F5803FF0D1EBE77B
:1025300001297FF460AF5AE711F5803F7FF45BAF6C
:1025400055E700BF0101000114000100438D9BB25B
:102550005BB1426A036812781A61436A01334362CD
:10256000438D9BB2013B9BB243857047438D9BB229
:102570005BB103681A69436A1A70436A01334362A4
:10258000438D9BB2013B9BB24385704782B00023D1
:1025900001930E4B1B68DB080D4AA2FB03231B0AA9
:1025A00003EB83030193019B013B0193019B33B137
:1025B00003681B6813F4007FF5D1002004E0036C6E
:1025C00043F020030364012002B0704700000020A4
:1025D00089B5F81403685A6912F4806F01D100209C
:1025E00070476FF480625A6100230363202280F8F1
:1025F0003D2080F83E30026C42F00402026480F814
:102600003C3001207047C36AB3F52A0F04D0C36A77
:10261000B3F12A4F03D070470123C36270470823E8
:10262000C362F8E72DE9F04106460C461746984686
:102630003BE0FFF75FFC069BC01A404502D8B8F1AB
:10264000000F32D1012D18D033689B6924EA0303AF
:102650009BB2B3FA83F35B099F4226D10023336315
:10266000202286F83D2086F83E30326C42F020026F
:10267000326486F83C30012027E033685B6924EA45
:1026800003039BB2B3FA83F35B09E5E733685B6945
:1026900024EA030C1FFA8CFCBCFA8CFC4FEA5C1C8D
:1026A000674511D1B8F1FF3FC3D1C4F30745012DF0
:1026B000ECD033689B6924EA030C1FFA8CFCBCFA4B
:1026C0008CFC4FEA5C1CEBE70020BDE8F0812DE9B3
:1026D000F84305460E469046994653E01A6842F480
:1026E00000721A602B686FF480625A6100232B63BA
:1026F000202285F83D2085F83E302A6C42F0040205
:102700002A6485F83C3001204AE0FFF7F3FBA0EB98
:102710000900404502D8B8F1000F33D1012F17D07E
:102720002B689B6926EA03039BB2003B18BF012379
:1027300043B300232B63202285F83D2085F83E30EB
:102740002A6C42F020022A6485F83C30012027E000
:102750002B685B6926EA03039BB2003B18BF012389
:10276000E6E72B689C6926EA0404A4B2003C18BF83
:102770000124A4B12B685A6912F4806FAED1B8F16C
:10278000FF3FC2D1C6F30747012FEAD12B685C692E
:1027900026EA0404A4B2003C18BF0124E9E70020A3
:1027A000BDE8F88370B504460D46164623685B699C
:1027B00013F0800F21D12046FFF70CFFF8B9B5F1D7
:1027C000FF3FF3D0FFF796FB801BA84201D8002DF6
:1027D000ECD123685B6913F0800FE7D100232363FA
:1027E000202284F83D2084F83E30226C42F0200202
:1027F000226484F83C30012000E0002070BD0120FC
:10280000FCE700002DE9F04385B004460D469146F3
:102810001F46DDF830800D9E0368196841F4807111
:1028200019600096434600224FF00111FFF7FAFEAF
:1028300060B9236805F0FE051D613346424626490E
:102840002046FFF744FF68B1012008E023681B68B9
:1028500013F4807F02D04FF400732364032005B08B
:10286000BDE8F0830023039323685A6903929B69B0
:102870000393039B324641462046FFF793FF30B94E
:10288000012F0FD123685FFA89F61E61E7E7236CF9
:10289000042B01D00120E2E72268136843F400739F
:1028A0001360F7E723684FEA19221A61324641465E
:1028B0002046FFF777FF20B923685FFA89F61E618B
:1028C000CDE7236C042B01D00120C8E722681368F0
:1028D00043F400731360F7E7020001002DE9F047AD
:1028E00084B004460D46164699460C9FDDF83480A8
:1028F0000268136843F4806313600368196841F445
:1029000080711960CDF800803B4600224FF0011124
:10291000FFF788FE70B95FFA85FA236805F0FE05B7
:102920001D6143463A4641492046FFF7D0FE68B153
:10293000012008E023681B6813F4807F02D04FF465
:1029400000732364032004B0BDE8F08700230393E1
:1029500023685A6903929B690393039B4246394655
:102960002046FFF71FFF80B9B9F1010F18D1236886
:10297000F6B21E61424639462046FFF713FF68B3A0
:10298000236C042B24D00120DDE7236C042B01D021
:102990000120D8E72268136843F400731360F7E757
:1029A0002368320A1A61424639462046FFF7FAFE8A
:1029B00018B92368F6B21E61DCE7236C042B01D042
:1029C0000120C0E72268136843F400731360F7E73F
:1029D0002268136843F400731360D4E72268136815
:1029E00043F480731360CDF800803B4600224FF023
:1029F00001112046FFF716FE68B922684AF001036C
:102A0000136143463A4609492046FFF760FE002815
:102A100099D0012097E723681B6813F4807F02D0C8
:102A20004FF40073236403208DE700BF0200010010
:102A300070B504460D46164623685B6913F0040F13
:102A400021D12046FFF7C6FDF8B9B5F1FF3FF3D01D
:102A5000FFF750FA801BA84201D8002DECD1236863
:102A60005B6913F0040FE7D100232363202284F86D
:102A70003D2084F83E30226C42F02002226484F82B
:102A80003C30012000E0002070BD0120FCE770B563
:102A900004460D46164614E06FF010025A610023FA
:102AA0002363202284F83D2084F83E30226C226487
:102AB00084F83C30012025E023685B6913F0400F67
:102AC00010D02368586910F0400F1AD1586910F0DF
:102AD000100FE1D1FFF70EFA801BA842ECD8002DB1
:102AE000EFD1E9E700232363202284F83D2084F816
:102AF0003E30226C42F02002226484F83C300120F7
:102B000000E0002070BD0000002800F0CC8070B50F
:102B1000044690F83D30002B77D0242384F83D30D4
:102B20002268136823F0010313602268136843F4DA
:102B3000004313602268136823F40043136002F01B
:102B400069FA62685A4B9A4264D85A4B98428CBFD1
:102B500000230123002B40F0A8805749A1FB00313E
:102B60008B0C25686A6822F03F0242EA91426A6053
:102B700021680A6A22F03F0266684D4DAE424FD886
:102B8000013313430B622168CA6922F44F4222F0D9
:102B9000FF026568464B9D424CD8431E6D00B3FB57
:102BA000F5F3013340F6FC70034278D0C3F30B0316
:102BB0001A43CA6121680B6823F0C003E269206AE6
:102BC000024313430B6021688B6823F4034323F013
:102BD000FF032269E068024313438B602168CB68DE
:102BE00023F0FF036269A06902431343CB602268AC
:102BF000136843F00103136000202064202384F84D
:102C00003D30206384F83E0070BD80F83C30FEF714
:102C1000E9FE82E7294B98428CBF0023012399E704
:102C20004FF4967505FB03F3254DA5FB03539B0954
:102C30000133A6E7A668BEB9431E05EB450CB3FBFE
:102C4000FCF30133C3F30B03B3FA83F35B0943BB18
:102C5000C6B9431E05EB4505B3FBF5F30133C3F3DA
:102C60000B0343F40043A3E7431E05EB850C0CEB79
:102C70008C0CB3FBFCF30133C3F30B03B3FA83F304
:102C80005B09E4E7431E05EB850505EB8505B3FB12
:102C9000F5F30133C3F30B0343F4404388E7042304
:102CA00086E7012384E7012070470120ACE700BFDD
:102CB000A08601007F841E0083DE1B43FF083D00C9
:102CC000D34D62102DE9F04383B004460F46904681
:102CD00099460C9EFFF70EF9054694F83D00C0B2E8
:102CE000202803D0022003B0BDE8F083009519230B
:102CF00001224B492046FFF795FC002840F08980CF
:102D000094F83C30012B00F08680012384F83C309D
:102D100023681A6812F0010F03D11A6842F0010209
:102D20001A602268136823F400631360212384F877
:102D30003D30402384F83E30002323640A9B6362C5
:102D4000BDF82C306385638D2385364BE362019596
:102D500000964B46424639462046FFF753FD002871
:102D60005BD1238D002B35D02A4631462046FFF714
:102D700019FD20BB626A236812781A61626A531CCB
:102D80006362218D013989B22185638D9BB2013B3C
:102D90009BB263852368586910F0040FE1D00029C5
:102DA000DFD052781A61636A01336362238D013B7D
:102DB0002385638D9BB2013B9BB26385D1E7236C76
:102DC000042B01D001208EE72268136843F40073BE
:102DD0001360F7E72A4631462046FFF729FE50B137
:102DE000236C042B01D001207DE72268136843F493
:102DF00000731360F7E72268136843F400731360ED
:102E0000202384F83D30002384F83E3084F83C30A1
:102E100069E7022067E7022065E7012063E700BF5A
:102E2000020010000000FFFF2DE9F04387B00446C8
:102E30000F4690469946109EFFF75CF8054694F8B9
:102E40003D00C0B2202804D00227384607B0BDE8B4
:102E5000F08300951923012288492046FFF7E2FB01
:102E6000002840F04D8194F83C30012B00F04A815D
:102E7000012384F83C3023681A6812F0010F03D153
:102E80001A6842F001021A602268136823F4006392
:102E90001360222384F83D30402384F83E30002321
:102EA00023640E9B6362BDF83C306385638D23858C
:102EB000734BE362019500964B46424639462046E5
:102EC000FFF70CFD0746002840F01E81238D5BB9FB
:102ED000029323685A6902929A690292029A1A68C6
:102EE00042F400721A6075E0012B0AD0022B1AD04E
:102EF0000023059323685A6905929B690593059BF6
:102F000068E02268136823F480631360002303934E
:102F100023685A6903929A690392039A1A6842F4E1
:102F200000721A6056E02268136823F4806313600D
:102F30002268136843F4006313600023049323683A
:102F40005A6904929B690493049B43E02A463146E4
:102F50002046FFF79CFD002840F0D88023681A69BE
:102F6000636A1A70636A01336362238D013B2385B0
:102F7000638D9BB2013B9BB263852BE0009533468A
:102F8000002240492046FFF74DFB002840F0C0805A
:102F90002268136843F40073136023681A69636A34
:102FA0001A70626A531C6362238D013B2385638D13
:102FB0009BB2013B9BB2638523681B695370636AB4
:102FC00001336362238D013B2385638D9BB2013BFB
:102FD0009BB26385238D002B00F08980032B53D88F
:102FE000012BB3D0022BC9D00095334600222549CE
:102FF0002046FFF717FB002840F08C8022681368FA
:1030000023F48063136023681A69636A1A70636A21
:1030100001336362238D013B2385638D9BB2013BAA
:103020009BB2638500953346002216492046FFF780
:10303000F9FA002870D12268136843F40073136012
:1030400023681A69636A1A70626A531C6362238D6B
:10305000013B2385638D9BB2013B9BB26385236853
:103060001B695370636A01336362238D013B2385BF
:10307000638D9BB2013B9BB26385ABE702001000FE
:103080000000FFFF040001002A4631462046FFF7FA
:10309000FEFC002842D123681A69636A1A70636AC9
:1030A00001336362228D013A92B22285638D9BB215
:1030B000013B9BB263852368596911F0040F89D0E5
:1030C000032A0FD023681A69636A1A70636A01338E
:1030D0006362238D013B2385638D9BB2013B9BB2D1
:1030E000638577E71A6822F480621A60EAE7202392
:1030F00084F83D30002384F83E3084F83C30A4E668
:103100000227A2E60227A0E601279EE601279CE609
:1031100001279AE6012798E6012796E6012794E61B
:1031200070477047704708B590F83D30DAB2438D6C
:103130009BB283B1416A036809781961436A01331C
:103140004362438D9BB2013B9BB24385438D9BB24F
:103150000BB9292A00D008BD0268536823F48063A4
:10316000536021230363282380F83D30FFF7DAFF03
:10317000F1E7704708B590F83D30DAB2438D9BB265
:1031800083B103681969436A1970436A0133436262
:10319000438D9BB2013B9BB24385438D9BB20BB9E0
:1031A0002A2A00D008BD0268536823F48063536064
:1031B00022230363282380F83D30FFF7DAFFF1E78D
:1031C000704700B583B090F83D3003F02803282BFA
:1031D0000CD0002301930268516901919269019218
:1031E000019A80F83C3003B05DF804FB0268536834
:1031F00023F48063536011F0040F0BD0002311F00F
:10320000800F09D18289002180F83C101946FFF710
:10321000D7FFE8E70123F2E7028BF4E770470000ED
:1032200010B5044690F83D30DBB2C26A082A01D0DE
:10323000202A01D1282B06D0212B1FD023686FF420
:1032400080625A6110BD1D4BE3622268536823F40B
:10325000E063536023686FF480625A6122681368E8
:1032600023F48063136000232363202284F83D202D
:1032700084F83E302046FFF7D1FFE3E70F4BE362CF
:1032800021232363202384F83D30002384F83E303B
:103290002268536823F4E063536023686FF480620C
:1032A0005A612268136823F4806313602046FEF796
:1032B000C4FF2046FFF736FFC4E700BF0000FFFF52
:1032C000704708B5C26A90F83D30DBB2212B00D0C0
:1032D00008BD438D9BB263B1426A036812781A61DC
:1032E000436A01334362438D9BB2013B9BB24385EA
:1032F000EEE7082A04D0202A02D012F5803F19D127
:103300000268536823F4E06353600268136843F46F
:103310000073136000230363202380F83D3090F88E
:103320003E30DBB2402B15D0002380F83E30FFF753
:10333000F7FECDE70268536823F4E063536011237E
:103340000363002380F83E30202380F83D30FFF7F0
:10335000E7FEBDE7002380F83E30FFF7B1FFB7E797
:1033600008B590F83D30026D9AB9C36C012B08D0B6
:10337000836C0268C3F307231361036D0133036594
:1033800008BD836C0268DBB21361036D0233036511
:10339000F6E7DBB2026D012A23D0026D022A3ED18C
:1033A000222B26D0428D92B20AB1212B2AD0428DF7
:1033B00092B2002AE4D1212BE2D10268536823F4AF
:1033C000E06353600268136843F4007313600023E2
:1033D0000363202280F83D2080F83E30FFF770FF25
:1033E000CEE7836C0268DBB21361036D01330365C2
:1033F000C6E70268136843F480731360036D0133FA
:103400000365BDE7426A036812781A61436A0133B3
:103410004362438D9BB2013B9BB24385B0E7FEF70D
:103420000CFFADE710B590F83D30DBB290F83E20D0
:10343000D2B2C46A018D00293BD1212B02D0402A8F
:1034400042D010BD082C04D0202C02D014F5803FAF
:1034500019D10268536823F4E0635360026813686B
:1034600043F40073136000230363202380F83D308E
:1034700090F83E30DBB2402B15D0002380F83E3070
:10348000FFF74EFEDDE70268536823F4E063536004
:1034900011230363002380F83E30202380F83D3061
:1034A000FFF73EFECDE7002380F83E30FFF708FF30
:1034B000C7E7212BC3D1438D9BB243B90268536840
:1034C00023F480635360BCE7222BBAD1F3E790F872
:1034D0003E30DBB2402B0CD0426A036812781A618E
:1034E000436A01334362438D9BB2013B9BB24385E8
:1034F000A7E7FFF735FFA4E7704708B5C26A438D19
:103500009BB2042B14D0438D9BB2032B22D0438D4E
:103510009BB2022B39D003681A69436A1A70436A56
:1035200001334362438D9BB2013B9BB2438510E064
:103530000268536823F48063536003681A69436A1E
:103540001A70436A01334362438D9BB2013B9BB2C5
:10355000438508BD01684B6823F480634B60042AEF
:1035600006D0022A04D00268136823F48063136033
:1035700003681A69436A1A70436A01334362438DD0
:103580009BB2013B9BB24385E3E7531E0F2B42D80E
:10359000DFE803F0083B413B4141414141414141AA
:1035A0004141410801680B6823F480630B600368A4
:1035B0001969436A1970416A4B1C4362438D9BB27F
:1035C000013B9BB2438503681B694B70436A01331F
:1035D0004362438D9BB2013B9BB2438501684B68BC
:1035E00023F440734B60202380F83D3090F83E3048
:1035F000DBB2402B15D0002380F83E30082A17D0CC
:10360000202A15D01223036314E001680B6843F4E9
:1036100080630B60CBE701680B6843F400730B60B9
:10362000C5E7002380F83E300363FFF765FF90E7AE
:1036300000230363FFF775FD8BE7704738B590F8FB
:103640003D30DBB2222B00D038BD0446C56A438D25
:103650009BB2032B15D903681A69436A1A70436A2F
:1036600001334362438D9BB2013B9BB24385438D43
:103670009BB2032BE8D10268536823F48063536044
:10368000E2E7C26A022A01D0012B05D922685368F9
:1036900023F480635360D7E7FEF778FF002835D125
:1036A0002268136823F4806313602268536823F44C
:1036B000E063536023681A69636A1A70636A0133AE
:1036C0006362638D9BB2013B9BB26385202384F8C8
:1036D0003D3094F83E30DBB2402B09D0002384F813
:1036E0003E30082D0CD0202D0AD01223236309E090
:1036F000002384F83E3023632046FFF7FDFEA3E756
:10370000002323632046FFF70CFD9DE722685368E2
:1037100023F4E063536023681A69636A1A70636A6A
:1037200001336362638D9BB2013B9BB263852023AF
:1037300084F83D30002384F83E302046FFF77DFFBB
:1037400082E7704700B583B000230193806B90F847
:103750003D20D2B2324B1B68DB083249A1FB031378
:103760001B0A03EB8303C3EBC3030193019B43B128
:10377000019B013B019303681B6813F4007FF5D1A3
:1037800003E0036C43F020030364436B0BB100219F
:10379000D963836B0BB10021D96301680B6823F4F3
:1037A00080630B6000234385436B0BB100211965D7
:1037B000836B0BB10021196501680B6823F00103CD
:1037C0000B6090F83D30DBB2602B0ED002F0280287
:1037D000282A14D0202380F83D30002380F83E3082
:1037E000FFF72BFF03B05DF804FB202380F83D308A
:1037F000002380F83E300364FFF7A3FFF2E702687E
:10380000136843F0010313600268136843F4806394
:10381000136000230363282380F83D30E0E700BFF6
:103820000000002089B5F81410B5044690F83D302A
:10383000DBB290F83E20D2B2102A36D0402A34D0E3
:1038400003F02802282A38D02268526812F4006F48
:1038500007D1602B05D0202384F83D30002384F865
:103860003E300023236323685A6812F4006F48D067
:103870005A6822F400625A60626B92F83530DBB20B
:10388000012B20D0444B1365606BFEF7C9FB002869
:1038900049D02268136823F001031360202384F8C1
:1038A0003D30606B036D98473DE0222BC8D1216805
:1038B0000A6822F400620A60C2E700232363282317
:1038C00084F83D30CFE7A36B334A1A65A06BFEF74F
:1038D000A7FB40B323685A6912F0400F05D01A695C
:1038E000636A1A70636A013363622268136823F0A3
:1038F00001031360202384F83D30A06B036D9847CB
:1039000011E094F83D20D2B2602A1FD05A6912F01B
:10391000400F05D01A69636A1A70636A01336362E3
:103920002046FFF78AFE236C13F00F0F04D02268A5
:10393000536823F4E063536094F83D30DBB2226CAB
:1039400012F0040F01D0282B18D010BD202284F8CB
:103950003D20002222645A6912F0400F05D01A69F6
:10396000636A1A70636A013363622268136823F022
:10397000010313602046FFF7E4FED4E7074BE36240
:1039800000232363202284F83D2084F83E30204623
:10399000FFF744FCD9E700BF453700080000FFFFF0
:1039A00030B583B0044690F83D50EDB202685368DC
:1039B00023F4E06353600023019303685A69019282
:1039C0001A6842F001021A60019B0268136823F42E
:1039D0008063136003685A6812F4006F38D0222D98
:1039E00021D02A2D1FD0426B1268526892B24285B4
:1039F000428D92B21AB1026C42F0040202645A681B
:103A000022F400625A60606BFEF71DFB01281FD094
:103A1000636B444A1A65606BFEF702FBC0B1606BD2
:103A2000036D984714E0A26B1268526892B26285E7
:103A3000628D92B21AB1226C42F0040222645A687A
:103A400022F400625A60A06BFEF7FDFA012842D111
:103A5000638D9BB233B323685A6912F0040F0AD006
:103A60001A69636A1A70636A01336362638D9BB279
:103A7000013B9BB2638523685A6912F0400F0AD05C
:103A80001A69636A1A70636A01336362638D9BB259
:103A9000013B9BB26385638D9BB21BB1236C43F0EA
:103AA00004032364236C13BB2A2D25D094F83D30E6
:103AB000DBB2282B29D0236B222B01D0222D19D148
:103AC00000232363202284F83D2084F83E302046E2
:103AD000FFF74FFB0EE0A36B124A1A65A06BFEF7CF
:103AE0009FFA0028B4D0A06B036D9847B0E720463A
:103AF000FFF79AFE03B030BD00232363282384F828
:103B00003D302046FFF735FBD0E7074BE36200234B
:103B10002363202284F83D2084F83E302046FFF7BE
:103B20007DFBE7E7453700080000FFFFF8B50446D6
:103B300002685568C66A90F83E30DBB290F83D10D6
:103B4000C8B2102B13D0402B11D0236C002B7AD08D
:103B50005369002113F0020F78D015F4007F75D05F
:103B6000236C03B191692046FFF72BFBF8BDD2F817
:103B700018C0516911F0010705D1B6F52A0FF5D02B
:103B8000B6F12A4FF2D017B115F4007F29D111F008
:103B9000080F02D015F4007F2AD111F0020F02D0D5
:103BA00015F4007F28D11CF0040F31D0526812F4B4
:103BB000006FDBD111F0800F05D015F4806F02D0BB
:103BC00011F0040F1CD011F0040FCFD015F4007FBA
:103BD000CCD0212818D0402BC8D12046FFF7C0FBFD
:103BE000C4E72046FEF70FFD2046FEF72EFBBDE79B
:103BF0002046FEF77EFBB9E72046FEF78FFBB5E7D0
:103C00002046FFF70FFCB1E72046FFF75AFBADE770
:103C1000536813F4006FA9D111F0400F05D015F4CB
:103C2000806F02D011F0040F09D011F0040F9DD065
:103C300015F4007F9AD02046FFF75FFC96E72046F8
:103C4000FFF7FCFC92E79169536983E713F0100FCB
:103C500002D015F4007F18D121281AD0292818D0B5
:103C600013F0400F05D015F4806F02D013F0040F4D
:103C700028D013F0040F3FF479AF15F4007F3FF420
:103C800075AF2046FEF772FC70E72046FFF788FE0E
:103C90006CE713F0800F05D015F4806F02D013F09D
:103CA000040F0BD013F0040F3FF460AF15F4007F46
:103CB0003FF45CAF2046FEF749FC57E72046FFF78C
:103CC00032FA53E72046FFF755FA4FE7F8B50446B6
:103CD00003685D695F6890F83E20D2B2C5F30026A4
:103CE00015F4807F08D0C7F3002617F4807F03D037
:103CF0006FF480715961012615F4007F08D017F424
:103D0000807F05D046F0020623686FF40071596188
:103D100015F4806F19D017F4807F16D0638D99B297
:103D200094F83D30DBB2206B202A1BD023686FF45F
:103D30008061596146F00406102A01D0402A04D15E
:103D40002268136843F40073136015F4006F17D0F2
:103D500017F4807F14D046F0080623686FF40062E1
:103D60005A610EE00029E1D1212B05D0292B03D087
:103D7000282BDBD12128D9D12046FFF751FAE4E7DF
:103D80002EB1236C334323642046FFF74DFDF8BD6D
:103D90002DE9F04383B0D0F8008001EBC10300EBC4
:103DA00083039A6A5B6A9A4254D807460C469B1A68
:103DB00001EBC10200EB8202D2699A4200D31A469B
:103DC00002F103094FEA990915E006F103094FEAE8
:103DD0009909BB7904EBC40507EB8505296A0093B3
:103DE000B3B2E2B2404601F0C3FE2B6A33442B6209
:103DF000AB6A3344AB6208EB441303F510639B6971
:103E00009BB24B4512D304EBC40307EB83039A6ABE
:103E10005B6A9A420AD24BB19B1A04EBC40207EBCD
:103E20008202D6699E42D0D31E46CEE704EBC4037D
:103E300007EB83077A6ABB6A9A420FD804F00F0433
:103E40000122A240D8F8343823EA0203C8F83438F3
:103E5000002000E0012003B0BDE8F0830020FAE775
:103E600030B583B000287AD00446056890F89534C0
:103E7000C3B1032384F89534B5F1A04F17D020685F
:103E800001F02AFC237C8DF80030231D0ECB206826
:103E900001F061FB70B1022384F8953401252846B6
:103EA00003B030BD80F8943403F052FAE1E7002308
:103EB000A371E4E70021206802F071F8024608B916
:103EC000034617E0022384F895340125E7E703EB66
:103ED000C30104EB8101012048750B75CB850020DF
:103EE0000876C861086203EBC30104EB81014862F4
:103EF0000133DBB220799842E9D816E002EBC20325
:103F000004EB8303002183F8551283F8542283F8CD
:103F10005812C3F85C12C3F8601202EBC20304EB40
:103F20008303C3F864120132D2B29042E6D8237CF4
:103F30008DF80030231D0ECB206801F023FC0546D0
:103F400020B1022384F895340125A8E70023637487
:103F5000012384F89534206801F0E0FF9FE70125F4
:103F60009DE7036890F89424012A1AD010B50446FE
:103F7000012280F89424DA6812F0400F02D0427BCC
:103F8000012A09D0206801F0A1FB206801F0B8FFE8
:103F9000002084F8940410BD9A6B42F480329A6336
:103FA000F0E702207047000070B504460D46006837
:103FB000066C00EB411303F530639A68A17901297F
:103FC00011D038498E4256D03DB905EBC50304EBFC
:103FD0008303D3F86432002B5ED0E9B2204603F0AD
:103FE00001FA002070BD12F0080F09D02E498E4250
:103FF000F7D912F4004FF4D04FF400429A60F0E782
:1040000012F0200F02D020229A60EAE712F0280F67
:10401000E7D125498E4206D912F4004F03D04FF460
:1040200000429A60DDE705EBC50204EB8202D2F89C
:1040300074121B69C3F31203CB1AC2F868327DB93C
:1040400005EBC50204EB8202D2F864226AB105EBEB
:10405000C50204EB8202D2F860121944C2F8601261
:10406000E9B2204603F0BEF9BBE704F29C4201210D
:1040700001F0D4FFF4E712F4004F03D04FF40042F4
:104080009A60AEE712F0200F01D020229A60E9B2C8
:10409000204603F0A7F9A4E704F29C42002101F0B6
:1040A000BDFF9AE70A31544F0A30544F38B50446E1
:1040B00003681D6C03EB4113D3F8081B0E4A9542AD
:1040C00007D903F5306311F4004F02D04FF40042DA
:1040D0009A60204603F07EF9074B9D4202D9A379EE
:1040E000012B01D0002038BD04F29C420121206840
:1040F00001F094FFF6E700BF0A30544F90F8943473
:10410000012B0CD010B50446012380F8943441747F
:10411000006801F0E5FE002084F8940410BD022040
:10412000704738B505468C4611F0800F2BD101F051
:104130000F0E0EEBCE04A40004F514740444211DEC
:104140000EEBCE0E00EB8E0E00208EF855020CF01A
:104150000F0C81F800C0C2F30A028A600B714A7822
:104160000AB1A1F81AC0022B1CD095F89434012B87
:104170001BD0012385F89434286801F0DEFB002071
:1041800085F8940438BD01F00F0000EBC0018900F0
:1041900010312944043100EBC00005EB80000124FC
:1041A0004475D4E700234B71DFE70220EAE710B53E
:1041B00004460A4611F0800F20D101F00F0000EBF9
:1041C000C0039B0003F514732344191D00EBC000CA
:1041D00004EB8000002380F8553202F00F020A70D1
:1041E00094F89434012B18D0012384F89434206877
:1041F00001F0F0FB002084F8940410BD01F00F00E2
:1042000000EBC0039B0010332344191D00EBC000DA
:1042100004EB800001234375DFE70220EDE710B5D2
:10422000144601F00F0C0CEBCC01890001F5147160
:10423000014404310CEBCC0E00EB8E0ECEF8602264
:10424000CEF864320023CEF868328EF855328EF8FC
:1042500054C28279012A04D0006801F0A1FC002038
:1042600010BDCEF87042F7E701F00F0101EBC1017C
:1042700000EB8100D0F86802704710B5144601F0D9
:104280000F0C0CEBCC0189001031014404310CEB14
:10429000CC0E00EB8E0ECEF82020CEF8243000237A
:1042A000CEF8283001238EF815308EF814C08279AC
:1042B0009A4204D0006801F073FC002010BDCEF8D3
:1042C0003040F7E738B501F00F050279AA4238D33C
:1042D00004460B4611F0800F1FD101EBC10189008C
:1042E00001F514710144043103EBC30300EB8303B4
:1042F000002283F8552201238B700D7094F89434BA
:10430000012B20D0012384F89434206801F08DFD26
:1043100085B1002084F8940438BD05EBC5018900FF
:1043200010310144043105EBC50300EB8303012286
:104330005A75E0E704F29C42A179206801F06EFE14
:10434000E7E70120E8E70220E6E701F00F03027942
:104350009A4230D310B5044611F0800F1ED103EB02
:10436000C301890001F514710144043103EBC30258
:1043700000EB8202002082F8550200228A700B7046
:1043800094F89434012B18D0012384F894342068D5
:1043900001F078FD002084F8940410BD03EBC30104
:1043A000890010310144043103EBC30200EB8202A7
:1043B00001205075E1E7012070470220EDE708B5C4
:1043C00011F0800F0CD101F00F0101EBC101890048
:1043D00001F5147101440431006801F06BFB08BD64
:1043E00001F00F0101EBC1018900103101440431DA
:1043F000F2E72DE9F04F83B004460568284601F046
:10440000CAFD10B103B0BDE8F08F0646206801F088
:1044100093FD0028F6D005F50067BB68C3F30D23B4
:10442000C4F8D434206801F087FD10F0020F04D0E6
:104430002268536903F002035361206801F07CFD98
:1044400010F0100F15D02268936923F010039361C8
:10445000D5F8208008F00F0908F4F013B3F5802F89
:104460004CD0B3F5402F6FD02268936943F010030E
:104470009361206801F060FD10F4002F76D1206870
:1044800001F05AFD10F4802F40F0E080206801F028
:1044900053FD0028C0F26181206801F04DFD10F449
:1044A000006F09D0BB6813F0010F40F06E812268E5
:1044B000536903F400635361206801F03DFD10F47B
:1044C000805F40F06681206801F036FD10F4005FE7
:1044D00040F0B381206801F02FFD10F0080F40F08C
:1044E000C481206801F028FD10F0800F00F0D78112
:1044F000AB6923F08003AB610126C0E147F6F0739E
:1045000018EA030FB0D04FEA181A4FEAC903019313
:1045100009EBC90B04EB8B0BC8F30A12DBF8601232
:10452000284601F05FFCDBF86032CAF30A0A534404
:10453000CBF86032DBF86832019A4A4404EB82021D
:104540005344C2F868328FE7082204F29C4128469F
:1045500001F048FC09EBC90304EB8303D3F868229C
:10456000C8F30A184244C3F868227DE7206801F0C6
:10457000E7FC8046B14635E005EB49130122C3F85C
:10458000082B49462046FFF70FFD3CE005EB491399
:104590000822C3F8082B49462046FFF787FD35E07F
:1045A00009EBC90304EB830393F85732012B41D085
:1045B00005EB49130222C3F8082B1AF0200F04D090
:1045C00005EB49132022C3F8082B1AF4005F05D02D
:1045D00005EB49134FF40052C3F8082B09F1010908
:1045E0004FEA5808B8F1000F3FF449AF18F0010F37
:1045F000F4D05FFA89FB5946206801F0B1FC82468D
:1046000010F0010FB8D11AF0080FBFD11AF0100F37
:1046100004D005EB49131022C3F8082B1AF0020F3F
:10462000CBD06B6913F0800FBAD07B6843F4806302
:104630007B60B5E709EBC90304EB8303002283F831
:1046400057225946204602F01BFFB1E7206801F0CF
:104650007FFC8046B14625E05946204602F0CEFE5A
:104660001AF0080F04D005EB49130822C3F80829F3
:104670001AF0100F04D005EB49131022C3F80829D3
:104680001AF0400F04D005EB49134022C3F8082963
:104690001AF0020F40D11AF0800F59D109F1010927
:1046A0004FEA5808B8F1000F3FF4F0AE18F0010FD0
:1046B000F4D05FFA89FB5946206801F05AFC824623
:1046C00010F0010FCCD009F00F02012101FA02F223
:1046D0007B6B23EA02037B6305EB4913C3F80819DC
:1046E000A3798B42B8D109EBC90304EB83031A6A9F
:1046F000D9690A441A62B9F1000FADD109EBC903B7
:1047000004EB83035B6A002BA6D104F29C420121D7
:10471000206801F083FC9FE74946284600F0E2FF4D
:1047200009EBC90304EB8303DB7D012B05D005EB0B
:1047300049130222C3F80829ADE709EBC90304EBCA
:1047400083030022DA755946204602F09FFEEEE709
:1047500049462046FFF71CFBA0E77B6823F00103D6
:104760007B6094F8CC34012B08D0204602F082FE06
:104770002268536903F0004353618DE6002184F8F9
:10478000CC14204600F03EF9F2E7204602F05AFE33
:104790008DE67B6823F001037B601021206800F028
:1047A000A1FF1AE005EB46134FF67F31C3F8081955
:1047B000D3F8002922F40012C3F80029C3F8081B1B
:1047C000D3F8002B22F40012C3F8002BD3F8002BEF
:1047D00042F00062C3F8002B01362379B342E1D8DE
:1047E000FB6943F00113FB61E37BDBB1D7F8843055
:1047F00043F00B03C7F884307B6C43F00B037B64FE
:10480000D5F8003823F4FE63C5F8003804F29C4262
:10481000A179206801F002FC2268536903F48053F7
:10482000536150E67B6943F4005343F02B037B61F3
:104830003B6943F00B033B61E2E7206801F0E0FBDA
:10484000206801F069F8E071266800F0DDFB0146A0
:10485000E279304600F0C8FE204602F0E0FD226812
:10486000536903F40053536134E6204602F0D1FD4E
:104870002268536903F00803536132E60136237955
:10488000B3420CD906EBC60304EB830393F857320B
:10489000012BF3D1F1B22046FFF791FDEEE720683E
:1048A00001F04AFB10F4801F25D1206801F044FB81
:1048B00010F4001F59D0012326E001362379B342BA
:1048C0001BD905EB4613D3F8002906EBC60304EB0E
:1048D00083031B7E012BF0D1002AEEDA06EBC60320
:1048E00004EB83030122DA7566F07F01C9B220462A
:1048F000FFF765FDE1E70126E0E72268536903F46D
:1049000080135361D1E7013322799A4228D905EB0C
:104910004312D2F8001B03EBC30204EB820292F8AD
:104920005822012AEFD10029EDDA01F48031D4F8C0
:10493000D42402F001029142E5D103EBC30204EB5F
:104940008202012182F85712AA6942F08002AA610C
:104950006A6912F0800FD6D17B6843F400737B60E4
:104960002268536903F400135361206801F0E4FAEC
:1049700010F0804F10D1206801F0DEFA10F0040F23
:104980003FF440AD23685D6815F0040F0DD1226837
:1049900053682B43536035E5204602F07DFD2268C5
:1049A000536903F080435361E5E7204602F07AFD46
:1049B000EDE710B40468606A29B940EA0240A062D9
:1049C000002010BC70478C46A36A00EB1340002304
:1049D00008E003F1400104EB8101496800EB11405C
:1049E0000133DBB20CF1FF318B42F2D340EA0240DB
:1049F0000CF13F0104EB81046060E1E70368596258
:104A00000020704770470000002800F0E08170B57A
:104A100082B00446036813F0010F3BD09F4B9B68A4
:104A200003F00C03042B2CD09C4B9B6803F00C036D
:104A3000082B21D06368B3F5803F4FD0B3F5A02F8A
:104A400052D0964B1A6822F480321A601A6822F407
:104A500080221A606368002B50D0FDF74BFA0546A0
:104A60008E4B1B6813F4003F14D1FDF743FA401B33
:104A70006428F5D90320B1E1884B5B6813F4800FFB
:104A8000D8D0864B1B6813F4003F03D06368002B1B
:104A900000F09F81236813F0020F54D07F4B9B6876
:104AA00013F00C0F3ED07D4B9B6803F00C03082BDA
:104AB00033D0E368002B68D0794B01221A60FDF7F0
:104AC00019FA0546754B1B6813F0020F54D1FDF718
:104AD00011FA401B0228F5D903207FE16F4A1368C1
:104AE00043F480331360B5E76C4B1A6842F48022BC
:104AF0001A601A6842F480321A60ABE7FDF7FAF9DF
:104B00000546664B1B6813F4003FC3D0FDF7F2F96E
:104B1000401B6428F5D9032060E1604B5B6813F407
:104B2000800FC6D15D4B1B6813F0020F03D0E36802
:104B3000012B40F05081594A136823F0F803216992
:104B400043EAC1031360236813F0080F42D063697E
:104B50006BB3534B0122C3F8802EFDF7CBF905460A
:104B60004E4B5B6F13F0020F34D1FDF7C3F9401BBE
:104B70000228F5D9032031E1484A136823F0F803ED
:104B8000216943EAC1031360DDE7454B00221A6047
:104B9000FDF7B0F90546414B1B6813F0020FD2D068
:104BA000FDF7A8F9401B0228F5D9032016E13C4B7C
:104BB0000022C3F8802EFDF79DF90546374B5B6F49
:104BC00013F0020F06D0FDF795F9401B0228F5D926
:104BD000032003E1236813F0040F77D02F4B1B6CE5
:104BE00013F0805F33D1002301932C4B1A6C42F0F9
:104BF00080521A641B6C03F080530193019B0125C2
:104C0000284B1B6813F4807F23D0A368012B34D07A
:104C1000052B38D0214B1A6F22F001021A671A6F48
:104C200022F004021A67A368002B3DD0FDF762F959
:104C300006461A4B1B6F13F0020F46D1FDF75AF9C7
:104C4000801B41F288339842F3D90320C6E0002547
:104C5000D6E7144A136843F480731360FDF74AF9EA
:104C60000646104B1B6813F4807FCED1FDF742F946
:104C7000801B0228F5D90320B0E0084A136F43F0E7
:104C800001031367CFE7054B1A6F42F004021A675E
:104C90001A6F42F001021A67C5E700BF00380240F0
:104CA0000000474200700040FDF724F90646524BD1
:104CB0001B6F13F0020F08D0FDF71CF9801B41F2A7
:104CC00088339842F3D9032088E0EDB9A369002B1B
:104CD00000F08380484A926802F00C02082A51D002
:104CE000022B17D0454B00221A66FDF703F9044644
:104CF000414B1B6813F0007F42D0FDF7FBF8001B0F
:104D00000228F5D9032069E03B4A136C23F0805355
:104D10001364DBE7394B00221A66FDF7EBF8054612
:104D2000354B1B6813F0007F06D0FDF7E3F8401BFE
:104D30000228F5D9032051E0E369226A1343626A2D
:104D400043EA8213A26A5208013A43EA0243E26A42
:104D500043EA0263284A5360284B01221A66FDF792
:104D6000C9F80446244B1B6813F0007F06D1FDF7F9
:104D7000C1F8001B0228F5D903202FE000202DE008
:104D800000202BE0012B2BD01B4B5B6803F4800130
:104D9000E269914226D103F03F02216A8A4223D17F
:104DA000616A47F6C0721A40B2EB811F1ED103F44C
:104DB0004031A26A5208013AB1EB024F18D103F018
:104DC0007063E26AB3EB026F14D1002006E00120A9
:104DD0007047012002E0012000E0002002B070BD19
:104DE0000120FBE70120F9E70120F7E70120F5E7C3
:104DF0000120F3E70120F1E70038024000004742BC
:104E000008B5264B9B6803F00C03042B41D0082BFC
:104E100041D1224B5A6802F03F025B6813F4800FC5
:104E200012D01E4B5968C1F388111D480023A1FB05
:104E30000001FCF741F8194B5B68C3F301430133F0
:104E40005B00B0FBF3F008BD144B5868C0F388104A
:104E50004FEA401CBCEB000C6EEB0E0E4FEA8E13BB
:104E600043EA9C634FEA8C11B1EB0C0163EB0E0338
:104E7000DB0043EA5173C90011EB000C43F100035E
:104E8000990200234FEA8C2041EA9C51FCF714F868
:104E9000D1E70348D7E70348D5E700BF0038024011
:104EA00040787D010024F400002800F09B8070B55C
:104EB0000D4604464F4B1B6803F007038B4208D294
:104EC000CBB24C4A1370136803F007038B4240F0D7
:104ED0008B80236813F0020F17D013F0040F04D057
:104EE000454A936843F4E0539360236813F0080F36
:104EF00004D0414A936843F4604393603E4A936808
:104F000023F0F003A1680B439360236813F0010FB3
:104F100032D06368012B21D09A1E012A25D9364A46
:104F2000126812F0020F61D033498A6822F003023E
:104F300013438B60FCF7DEFF06462F4B9B6803F0A4
:104F40000C036268B3EB820F16D0FCF7D3FF801B13
:104F500041F288339842F0D9032042E0264A126891
:104F600012F4003FE0D101203BE0234A126812F026
:104F7000007FD9D1012034E01E4B1B6803F00703EA
:104F8000AB4207D9EAB21B4B1A701B6803F0070348
:104F9000AB422DD1236813F0040F06D0164A936854
:104FA00023F4E053E1680B439360236813F0080F88
:104FB00007D0114A936823F46043216943EAC1038F
:104FC0009360FFF71DFF0C4B9B68C3F303130B4A61
:104FD000D35CD8400A4B18600A4B1868FCF73EFFB8
:104FE000002070BD012070470120FAE70120F8E79A
:104FF0000120F6E7003C0240003802409CDB00083C
:105000000000002008000020014B1868704700BF16
:105010000000002008B5FFF7F7FF044B9B68C3F3BF
:105020008223034AD35CD84008BD00BF0038024049
:1050300094DB000810B4036A046A24F001040462DB
:10504000846924F0F00C4CEA021223F00A030B43AB
:105050008261036210BC704710B4036A046A24F0D2
:1050600010040462846924F4704C4CEA023223F088
:10507000A00343EA01138261036210BC7047836896
:1050800023F070030B4343F0070383607047000075
:1050900090F83D30DBB2012B2FD1022380F83D3058
:1050A0000268D36843F00103D3600368154A934252
:1050B00018D0B3F1804F15D0A2F57C42934211D0A5
:1050C00002F5806293420DD002F58062934209D0CE
:1050D00002F59A32934205D01A6842F001021A6032
:1050E000002070479A6802F00702062A07D01A6863
:1050F00042F001021A600020704701207047002032
:10510000704700BF0000014070477047704770470C
:10511000704770B504460368DE681D6915F0020F1C
:1051200010D016F0020F0DD06FF002021A610123A9
:10513000037703689B6913F0030F5ED0FFF7E6FF68
:105140000023237715F0040F12D016F0040F0FD0B0
:1051500023686FF004021A610223237723689B6996
:1051600013F4407F4FD02046FFF7D0FF0023237772
:1051700015F0080F12D016F0080F0FD023686FF04B
:1051800008021A61042323772368DB6913F0030FF5
:1051900040D02046FFF7BAFF0023237715F0100F09
:1051A00012D016F0100F0FD023686FF010021A61A2
:1051B000082323772368DB6913F4407F31D020462E
:1051C000FFF7A4FF0023237715F0010F02D016F09C
:1051D000010F2DD115F0800F02D016F0800F2FD1C6
:1051E00015F0400F02D016F0400F31D115F0200F0E
:1051F00002D016F0200F33D170BDFFF786FF204696
:10520000FFF785FF9CE72046FFF77FFF2046FFF76B
:105210007EFFABE72046FFF778FF2046FFF777FFDA
:10522000BAE72046FFF771FF2046FFF770FFC9E796
:1052300023686FF001021A612046FFF765FFC9E796
:1052400023686FF080021A61204600F05EF9C7E71C
:1052500023686FF040021A612046FFF759FFC5E747
:1052600023686FF020021A61204600F04DF9C3E771
:105270000368294A90420ED0B0F1804F0BD0A2F5BE
:105280007C42904207D002F58062904203D002F542
:105290008062904203D123F070034A6813431E4A90
:1052A00090421AD0B0F1804F17D0A2F57C429042C4
:1052B00013D002F5806290420FD002F580629042D6
:1052C0000BD002F59A32904207D002F580629042EC
:1052D00003D002F58062904203D123F44073CA6880
:1052E000134323F080034A69134303608B68C3624E
:1052F0000B688362084B98420AD00123436103691B
:1053000013F0010F03D0036923F001030361704719
:105310000B690363F1E700BF0000014040B310B523
:10532000044690F83D30F3B1022384F83D30214625
:1053300051F8040BFFF79CFF012384F8463084F8F2
:105340003E3084F83F3084F8403084F8413084F8AF
:10535000423084F8433084F8443084F8453084F88F
:105360003D30002010BD80F83C30FCF785FBDBE7CA
:105370000120704710B4846824F47F4C42EA032271
:105380000A4342EA0C02826010BC704790F83C303D
:10539000012B78D010B50446012380F83C3002235D
:1053A00080F83D300268936823F47F4323F077034D
:1053B00093600B68602B4CD023D8402B54D011D86D
:1053C000202B03D00AD80BB1102B05D11946206829
:1053D000FFF755FE002028E0012026E0302BF5D015
:1053E000012022E0502B0AD1CA6849680068FFF703
:1053F00021FE50212068FFF742FE002015E0012029
:1054000013E0B3F5805F3AD0B3F5005F14D0702B92
:1054100037D1CB684A6889680068FFF7ABFF22681C
:10542000936843F0770393600020012384F83D30B4
:10543000002384F83C3010BDCB684A688968006856
:10544000FFF798FF2268936843F48043936000203D
:10545000EBE7CA6849680068FFF7FEFD6021206835
:10546000FFF70DFE0020E0E7CA6849680068FFF713
:10547000E1FD40212068FFF702FE0020D5E7002073
:10548000D3E70120D1E702207047000090F83C20CC
:10549000012A34D010B40346012280F83C200222B5
:1054A00080F83D2002685068946820F0700C08680D
:1054B00040EA0C0050601A681248824212D0B2F1E1
:1054C000804F0FD0A0F57C4082420BD000F5806069
:1054D000824207D000F58060824203D000F59A3006
:1054E000824204D124F08004496821439160012262
:1054F00083F83D20002083F83C0010BC7047022058
:10550000704700BF000001407047704782B0002321
:105510000193019B01330193019BB3F1706F15D887
:105520000369002BF5DA00230193036943F00103BB
:105530000361019B01330193019BB3F1706F08D8A4
:10554000036913F0010FF4D1002000E0032002B042
:1055500070470320FBE784B010B5044603A880E839
:105560000E009DF81130012B21D1A36B23F4803361
:10557000A363E36823F4840323F04003E360E36858
:1055800023F44013E3609DF81830012B0AD0204625
:10559000FFF7BCFF9DF80E30012B1CD0BDE810407A
:1055A00004B07047E36843F48013E360EFE7E36817
:1055B00043F04003E3602046FFF7A8FF9DF8153055
:1055C00023B9A36B43F48033A363E3E7A36B23F412
:1055D0008033A363DEE7A36843F00603A360A368F8
:1055E00043F02003A360D9E7022A0AD00922C36846
:1055F00023F47053C360C36843EA8223C36000206E
:105600007047234B0B44234A93422FD9224B0B4420
:10561000224A93422CD9A1F57403A3F51053204AD2
:10562000934227D9A1F18373A3F5E7431D4A93421F
:1056300022D31D4B0B441D4A93421FD91C4B0B44D4
:105640001C4A93421CD31C4B0B441C4A934219D353
:10565000A1F1B773A3F55853194A934214D3194BC8
:105660000B44194A934211D20722C0E70F22BEE72A
:105670000E22BCE70D22BAE70C22B8E70B22B6E7F0
:105680000A22B4E70922B2E70822B0E70622AEE711
:10569000405327FFFF340C00401E1BFF3F420F000A
:1056A0007F4F120020D6130060B6E5FE5FE31600C0
:1056B00000D3CEFE40771B00C05BB3FEC09121003B
:1056C00020753800E05459FEE09C4100836843F0A7
:1056D0000103836000207047836823F00103836027
:1056E0000020704782B000230193019B0133019396
:1056F000019BB3F1706F15D80369002BF5DA002315
:105700000193890141F020010161019B0133019363
:10571000019BB3F1706F08D8036913F0200FF4D127
:10572000002000E0032002B070470320FBE782B0B6
:1057300000230193019B01330193019BB3F1706F2F
:1057400013D80369002BF5DA0023019310230361BA
:10575000019B01330193019BB3F1706F08D803697A
:1057600013F0100FF4D1002000E0032002B07047C6
:105770000320FBE7D0F800381943C0F800180020D8
:105780007047000084B0F8B5044607A880E80E0012
:10579000002306E003F1400204EB82020021516085
:1057A00001330E2BF6D99DF8266006BBD4F80438D9
:1057B00043F00203C4F80438A36B43F40013A3635B
:1057C000A36B23F40023A363A36B23F48023A363BD
:1057D0000023C4F8003E9DF82130012B15D19DF81F
:1057E0001F306BB900212046FFF7C4FF11E0A36B07
:1057F00023F40013A363A36B43F40023A363E7E73D
:1058000001212046FFF7B6FF03E003212046FFF702
:10581000B1FF10212046FFF765FF054600B10125C5
:105820002046FFF784FF00B1012504F5006C00233A
:10583000CCF81030CCF81430CCF81C300AE0CBB9DE
:105840004FF00060C2F8000900220A614FF67F3273
:105850008A6001339DF81C10994210D904EB431261
:1058600002F51061D2F800090028E8DB0020C2F838
:105870000009E9E74FF09040C2F80009E4E700238F
:105880000AE0BBB14FF09047C2F8007B00220261F2
:105890004FF67F3282600133994210D904EB4312F4
:1058A00002F53060D2F8007B002FEADB0027C2F857
:1058B000007BEBE74FF00067C2F8007BE6E7DCF81F
:1058C000103023F48073CCF810300023A3616FF004
:1058D000804363619DF81E301BB9A36943F0100338
:1058E000A361A2690B4B1343A3619DF822301BB146
:1058F000A36943F00803A361012E04D02846BDE844
:10590000F84004B07047A36943F0804343F00403B8
:10591000A361F3E700383C80D0F8083803F00603B1
:10592000022B04D0062B04D02BB900207047022094
:105930007047022070470F20704710B591F800C0E3
:105940004B78012B23D000F5006ED0F81C380CF0FA
:105950000F040122A24043EA0243C0F81C3800EBC6
:105960004C10D0F8003B13F4004F0ED1D0F8003BA0
:105970008A68C2F30A02097942EA8142134343F07A
:10598000805343F40043C0F8003B002010BDD0F822
:105990001C280CF00F0E03FA0EF39BB21343C0F851
:1059A0001C3800EB4C10D0F8003913F4004FECD148
:1059B000D0F800398A68C2F30A02097942EA8142C2
:1059C00042EA8C52134343F0805343F40043C0F83F
:1059D0000039DAE730B40B784A78012A26D000EB98
:1059E0004313D3F8002B002A52DBD0F83C480A7846
:1059F00002F00F024FF0010C0CFA02F224EA02420C
:105A0000C0F83C28D0F81C28097801F00F010CFAE6
:105A100001FC22EA0C42C0F81C28D3F8001B234AE0
:105A20000A40C3F8002B002030BC704700EB431342
:105A3000D3F80029002A1EDBD0F83C580A7802F07F
:105A40000F02012404FA02F292B225EA0202C0F81F
:105A50003C28D0F81C28097801F00F018C40A4B232
:105A600022EA0402C0F81C28D3F80019104A0A40A0
:105A7000C3F80029D7E7D3F8002942F00062C3F841
:105A80000029D3F8002942F08042C3F80029D3E767
:105A9000D3F8002B42F00062C3F8002BD3F8002BA0
:105AA00042F08042C3F8002B9FE700BF0078F3EF7D
:105AB000007833EC10B483B0024600230193487899
:105AC00001280AD00B7802EB4313D3F8000B00280F
:105AD0002CDB002003B010BC70470B7802EB4313A3
:105AE000D3F80049002C01DB0020F3E7D3F800498C
:105AF00044F00064C3F800490B7802EB4313D3F879
